{
  "_format": "hh-sol-artifact-1",
  "contractName": "GMPortal",
  "sourceName": "contracts/GMPortal.sol",
  "abi": [
    {
      "inputs": [],
      "stateMutability": "payable",
      "type": "constructor"
    },
    {
      "anonymous": false,
      "inputs": [
        {
          "indexed": true,
          "internalType": "address",
          "name": "from",
          "type": "address"
        },
        {
          "indexed": false,
          "internalType": "uint256",
          "name": "timestamp",
          "type": "uint256"
        },
        {
          "indexed": false,
          "internalType": "string",
          "name": "handle",
          "type": "string"
        },
        {
          "indexed": false,
          "internalType": "string",
          "name": "message",
          "type": "string"
        },
        {
          "indexed": false,
          "internalType": "string",
          "name": "animation",
          "type": "string"
        },
        {
          "indexed": false,
          "internalType": "string",
          "name": "gradientFrom",
          "type": "string"
        },
        {
          "indexed": false,
          "internalType": "string",
          "name": "gradientTo",
          "type": "string"
        },
        {
          "indexed": false,
          "internalType": "string",
          "name": "fontSize",
          "type": "string"
        },
        {
          "indexed": false,
          "internalType": "string",
          "name": "fontWeight",
          "type": "string"
        }
      ],
      "name": "NewGM",
      "type": "event"
    },
    {
      "inputs": [],
      "name": "getAllGMs",
      "outputs": [
        {
          "components": [
            {
              "internalType": "address",
              "name": "gmer",
              "type": "address"
            },
            {
              "internalType": "uint256",
              "name": "timestamp",
              "type": "uint256"
            },
            {
              "internalType": "string",
              "name": "handle",
              "type": "string"
            },
            {
              "internalType": "string",
              "name": "message",
              "type": "string"
            },
            {
              "internalType": "string",
              "name": "animation",
              "type": "string"
            },
            {
              "internalType": "string",
              "name": "gradientFrom",
              "type": "string"
            },
            {
              "internalType": "string",
              "name": "gradientTo",
              "type": "string"
            },
            {
              "internalType": "string",
              "name": "fontSize",
              "type": "string"
            },
            {
              "internalType": "string",
              "name": "fontWeight",
              "type": "string"
            }
          ],
          "internalType": "struct GMPortal.GM[]",
          "name": "",
          "type": "tuple[]"
        }
      ],
      "stateMutability": "view",
      "type": "function"
    },
    {
      "inputs": [],
      "name": "getTotalGMs",
      "outputs": [
        {
          "internalType": "uint256",
          "name": "",
          "type": "uint256"
        }
      ],
      "stateMutability": "view",
      "type": "function"
    },
    {
      "inputs": [
        {
          "internalType": "string",
          "name": "_handle",
          "type": "string"
        }
      ],
      "name": "gm",
      "outputs": [],
      "stateMutability": "nonpayable",
      "type": "function"
    }
  ],
  "bytecode": "0x608060405260405180604001604052806040518060400160405280600281526020017f676d00000000000000000000000000000000000000000000000000000000000081525081526020016040518060400160405280600281526020017f474d00000000000000000000000000000000000000000000000000000000000081525081525060039060026200009592919062001943565b506040518060c001604052806040518060200160405280600081525081526020016040518060400160405280600181526020017f2c0000000000000000000000000000000000000000000000000000000000000081525081526020016040518060400160405280600181526020017f210000000000000000000000000000000000000000000000000000000000000081525081526020016040518060400160405280600181526020017f2e0000000000000000000000000000000000000000000000000000000000000081525081526020016040518060400160405280600281526020017f212100000000000000000000000000000000000000000000000000000000000081525081526020016040518060400160405280600781526020017f21212121212121000000000000000000000000000000000000000000000000008152508152506004906006620001ed929190620019aa565b506040518061088001604052806040518060400160405280600281526020017f676e00000000000000000000000000000000000000000000000000000000000081525081526020016040518060400160405280600381526020017f736572000000000000000000000000000000000000000000000000000000000081525081526020016040518060400160405280600481526020017f6672656e0000000000000000000000000000000000000000000000000000000081525081526020016040518060400160405280600381526020017f676d69000000000000000000000000000000000000000000000000000000000081525081526020016040518060400160405280600581526020017f7761676d6900000000000000000000000000000000000000000000000000000081525081526020016040518060400160405280600481526020017f6e676d690000000000000000000000000000000000000000000000000000000081525081526020016040518060400160405280600a81526020017f4d63446f6e616c6427730000000000000000000000000000000000000000000081525081526020016040518060400160405280600281526020017f4c4c00000000000000000000000000000000000000000000000000000000000081525081526020016040518060400160405280600281526020017f414200000000000000000000000000000000000000000000000000000000000081525081526020016040518060400160405280600e81526020017f47656e657261746976652041727400000000000000000000000000000000000081525081526020016040518060400160405280600381526020017f504650000000000000000000000000000000000000000000000000000000000081525081526020016040518060400160405280600a81526020017f6c6f6f6b7320726172650000000000000000000000000000000000000000000081525081526020016040518060400160405280600481526020017f464f4d4f0000000000000000000000000000000000000000000000000000000081525081526020016040518060400160405280600481526020017f436f70650000000000000000000000000000000000000000000000000000000081525081526020016040518060400160405280600781526020017f313a31204172740000000000000000000000000000000000000000000000000081525081526020016040518060400160405280600381526020017f537a6e000000000000000000000000000000000000000000000000000000000081525081526020016040518060400160405280600381526020017f49524c000000000000000000000000000000000000000000000000000000000081525081526020016040518060400160405280601081526020017f70726f6261626c79206e6f7468696e670000000000000000000000000000000081525081526020016040518060400160405280600781526020017f7570206f6e6c790000000000000000000000000000000000000000000000000081525081526020016040518060400160405280600981526020017f6c6971756964697479000000000000000000000000000000000000000000000081525081526020016040518060400160405280600481526020017f6d696e740000000000000000000000000000000000000000000000000000000081525081526020016040518060400160405280600381526020017f48454e000000000000000000000000000000000000000000000000000000000081525081526020016040518060400160405280600881526020017f312f31206f66205800000000000000000000000000000000000000000000000081525081526020016040518060400160405280601381526020017f726967687420636c69636b20736176652061730000000000000000000000000081525081526020016040518060400160405280600f81526020017f746869732069732074686520776179000000000000000000000000000000000081525081526020016040518060400160405280600b81526020017f666c6f6f7220707269636500000000000000000000000000000000000000000081525081526020016040518060400160405280600281526020017f4f4700000000000000000000000000000000000000000000000000000000000081525081526020016040518060400160405280600581526020017f416c70686100000000000000000000000000000000000000000000000000000081525081526020016040518060400160405280601481526020017f697473206d6f6e6579206c61756e646572696e6700000000000000000000000081525081526020016040518060400160405280600481526020017f4a5047730000000000000000000000000000000000000000000000000000000081525081526020016040518060400160405280600681526020017f64656c697374000000000000000000000000000000000000000000000000000081525081526020016040518060400160405280600781526020017f446973636f72640000000000000000000000000000000000000000000000000081525081526020016040518060400160405280600781526020017f526f61646d61700000000000000000000000000000000000000000000000000081525081526020016040518060400160405280600381526020017f4c4647000000000000000000000000000000000000000000000000000000000081525081526020016040518060400160405280600381526020017f666577000000000000000000000000000000000000000000000000000000000081525081526020016040518060400160405280600881526020017f476173205761727300000000000000000000000000000000000000000000000081525081526020016040518060400160405280600381526020017f646564000000000000000000000000000000000000000000000000000000000081525081526020016040518060400160405280600381526020017f727567000000000000000000000000000000000000000000000000000000000081525081526020016040518060400160405280600581526020017f49594b594b00000000000000000000000000000000000000000000000000000081525081526020016040518060400160405280600b81526020017f646572697661746976657300000000000000000000000000000000000000000081525081526020016040518060400160405280600481526020017f6e6f6f620000000000000000000000000000000000000000000000000000000081525081526020016040518060400160405280600481526020017f706c65620000000000000000000000000000000000000000000000000000000081525081526020016040518060400160405280600b81526020017f7365656d73206c6567697400000000000000000000000000000000000000000081525081526020016040518060400160405280600981526020017f6d6565747370616365000000000000000000000000000000000000000000000081525081526020016040518060400160405280601381526020017f627579696e67206f6e207365636f6e646172790000000000000000000000000081525081526020016040518060400160405280600f81526020017f536368656c6c696e6720506f696e74000000000000000000000000000000000081525081526020016040518060400160405280600981526020017f77656e206d6f6f6e3f000000000000000000000000000000000000000000000081525081526020016040518060400160405280600881526020017f56616c68616c6c6100000000000000000000000000000000000000000000000081525081526020016040518060400160405280600481526020017f44594f520000000000000000000000000000000000000000000000000000000081525081526020016040518060400160405280600481526020017f417065640000000000000000000000000000000000000000000000000000000081525081526020016040518060400160405280600381526020017f4e4641000000000000000000000000000000000000000000000000000000000081525081526020016040518060400160405280600f81526020017f746869732069732074686520776179000000000000000000000000000000000081525081526020016040518060400160405280600381526020017f6d616d000000000000000000000000000000000000000000000000000000000081525081526020016040518060400160405280600581526020017f646567656e00000000000000000000000000000000000000000000000000000081525081526020016040518060400160405280600481526020017f6d6178690000000000000000000000000000000000000000000000000000000081525081526020016040518060400160405280600481526020017f73616c740000000000000000000000000000000000000000000000000000000081525081526020016040518060400160405280600e81526020017f6c6f766520746f2073656520697400000000000000000000000000000000000081525081526020016040518060400160405280600e81526020017f6861746520746f2073656520697400000000000000000000000000000000000081525081526020016040518060400160405280600481526020017f72656b740000000000000000000000000000000000000000000000000000000081525081526020016040518060400160405280600381526020017f44414f000000000000000000000000000000000000000000000000000000000081525081526020016040518060400160405280600981526020017f4f4b20426f6f6d6572000000000000000000000000000000000000000000000081525081526020016040518060400160405280601881526020017f4920736565207768617420796f7520646964207468657265000000000000000081525081526020016040518060400160405280600881526020017f5368696c6c696e6700000000000000000000000000000000000000000000000081525081526020016040518060400160405280600981526020017f796f75722062616773000000000000000000000000000000000000000000000081525081526020016040518060400160405280600f81526020017f73776565702074686520666c6f6f72000000000000000000000000000000000081525081526020016040518060400160405280600381526020017f465544000000000000000000000000000000000000000000000000000000000081525081526020016040518060400160405280600481526020017f474f41540000000000000000000000000000000000000000000000000000000081525081526020016040518060400160405280600981526020017f47616e672047616e6700000000000000000000000000000000000000000000008152508152506005906044620011b692919062001a11565b506040518061012001604052806040518060400160405280600481526020017f626c75650000000000000000000000000000000000000000000000000000000081525081526020016040518060400160405280600581526020017f677265656e00000000000000000000000000000000000000000000000000000081525081526020016040518060400160405280600681526020017f79656c6c6f77000000000000000000000000000000000000000000000000000081525081526020016040518060400160405280600481526020017f70696e6b0000000000000000000000000000000000000000000000000000000081525081526020016040518060400160405280600681526020017f707572706c65000000000000000000000000000000000000000000000000000081525081526020016040518060400160405280600381526020017f726564000000000000000000000000000000000000000000000000000000000081525081526020016040518060400160405280600681526020017f6f72616e6765000000000000000000000000000000000000000000000000000081525081526020016040518060400160405280600581526020017f626c61636b00000000000000000000000000000000000000000000000000000081525081526020016040518060400160405280600481526020017f67726179000000000000000000000000000000000000000000000000000000008152508152506006906009620013e692919062001a78565b5060405180606001604052806040518060400160405280600481526020017f6e6f6e650000000000000000000000000000000000000000000000000000000081525081526020016040518060400160405280600581526020017f70756c736500000000000000000000000000000000000000000000000000000081525081526020016040518060400160405280600681526020017f626f756e636500000000000000000000000000000000000000000000000000008152508152506007906003620014b392919062001adf565b506040518060e001604052806040518060400160405280600281526020017f6d6400000000000000000000000000000000000000000000000000000000000081525081526020016040518060400160405280600481526020017f626173650000000000000000000000000000000000000000000000000000000081525081526020016040518060400160405280600281526020017f6c6700000000000000000000000000000000000000000000000000000000000081525081526020016040518060400160405280600281526020017f786c00000000000000000000000000000000000000000000000000000000000081525081526020016040518060400160405280600381526020017f32786c000000000000000000000000000000000000000000000000000000000081525081526020016040518060400160405280600381526020017f33786c000000000000000000000000000000000000000000000000000000000081525081526020016040518060400160405280600381526020017f34786c000000000000000000000000000000000000000000000000000000000081525081525060089060076200166c92919062001b46565b506040518060e001604052806040518060400160405280600581526020017f6c6967687400000000000000000000000000000000000000000000000000000081525081526020016040518060400160405280600681526020017f6e6f726d616c000000000000000000000000000000000000000000000000000081525081526020016040518060400160405280600681526020017f6d656469756d000000000000000000000000000000000000000000000000000081525081526020016040518060400160405280600881526020017f73656d69626f6c6400000000000000000000000000000000000000000000000081525081526020016040518060400160405280600481526020017f626f6c640000000000000000000000000000000000000000000000000000000081525081526020016040518060400160405280600981526020017f6578747261626f6c64000000000000000000000000000000000000000000000081525081526020016040518060400160405280600581526020017f626c61636b00000000000000000000000000000000000000000000000000000081525081525060099060076200182592919062001b46565b50620018716040518060400160405280600b81526020017f436f6e73747275637465640000000000000000000000000000000000000000008152506200187760201b620010061760201c565b62001df8565b62001917816040516024016200188e919062001d0c565b6040516020818303038152906040527f41304fac000000000000000000000000000000000000000000000000000000007bffffffffffffffffffffffffffffffffffffffffffffffffffffffff19166020820180517bffffffffffffffffffffffffffffffffffffffffffffffffffffffff83818316178352505050506200191a60201b60201c565b50565b60008151905060006a636f6e736f6c652e6c6f679050602083016000808483855afa5050505050565b82805482825590600052602060002090810192821562001997579160200282015b82811115620019965782518290805190602001906200198592919062001bad565b509160200191906001019062001964565b5b509050620019a6919062001c3e565b5090565b828054828255906000526020600020908101928215620019fe579160200282015b82811115620019fd578251829080519060200190620019ec92919062001bad565b5091602001919060010190620019cb565b5b50905062001a0d919062001c3e565b5090565b82805482825590600052602060002090810192821562001a65579160200282015b8281111562001a6457825182908051906020019062001a5392919062001bad565b509160200191906001019062001a32565b5b50905062001a74919062001c3e565b5090565b82805482825590600052602060002090810192821562001acc579160200282015b8281111562001acb57825182908051906020019062001aba92919062001bad565b509160200191906001019062001a99565b5b50905062001adb919062001c3e565b5090565b82805482825590600052602060002090810192821562001b33579160200282015b8281111562001b3257825182908051906020019062001b2192919062001bad565b509160200191906001019062001b00565b5b50905062001b42919062001c3e565b5090565b82805482825590600052602060002090810192821562001b9a579160200282015b8281111562001b9957825182908051906020019062001b8892919062001bad565b509160200191906001019062001b67565b5b50905062001ba9919062001c3e565b5090565b82805462001bbb9062001d82565b90600052602060002090601f01602090048101928262001bdf576000855562001c2b565b82601f1062001bfa57805160ff191683800117855562001c2b565b8280016001018555821562001c2b579182015b8281111562001c2a57825182559160200191906001019062001c0d565b5b50905062001c3a919062001c66565b5090565b5b8082111562001c62576000818162001c58919062001c85565b5060010162001c3f565b5090565b5b8082111562001c8157600081600090555060010162001c67565b5090565b50805462001c939062001d82565b6000825580601f1062001ca7575062001cc8565b601f01602090049060005260206000209081019062001cc7919062001c66565b5b50565b600062001cd88262001d30565b62001ce4818562001d3b565b935062001cf681856020860162001d4c565b62001d018162001de7565b840191505092915050565b6000602082019050818103600083015262001d28818462001ccb565b905092915050565b600081519050919050565b600082825260208201905092915050565b60005b8381101562001d6c57808201518184015260208101905062001d4f565b8381111562001d7c576000848401525b50505050565b6000600282049050600182168062001d9b57607f821691505b6020821081141562001db25762001db162001db8565b5b50919050565b7f4e487b7100000000000000000000000000000000000000000000000000000000600052602260045260246000fd5b6000601f19601f8301169050919050565b611d0e8062001e086000396000f3fe608060405234801561001057600080fd5b50600436106100415760003560e01c8063085799a6146100465780631ba7f2e714610064578063d8686ecb14610082575b600080fd5b61004e61009e565b60405161005b9190611800565b60405180910390f35b61006c6100e9565b6040516100799190611747565b60405180910390f35b61009c6004803603810190610097919061133a565b6105a7565b005b60006100e16040518060400160405280601481526020017f5765206861766520256420746f74616c20676d7300000000000000000000000081525060005461109f565b600054905090565b60606002805480602002602001604051908101604052809291908181526020016000905b8282101561059e5783829060005260206000209060090201604051806101200160405290816000820160009054906101000a900473ffffffffffffffffffffffffffffffffffffffff1673ffffffffffffffffffffffffffffffffffffffff1673ffffffffffffffffffffffffffffffffffffffff168152602001600182015481526020016002820180546101a190611b05565b80601f01602080910402602001604051908101604052809291908181526020018280546101cd90611b05565b801561021a5780601f106101ef5761010080835404028352916020019161021a565b820191906000526020600020905b8154815290600101906020018083116101fd57829003601f168201915b5050505050815260200160038201805461023390611b05565b80601f016020809104026020016040519081016040528092919081815260200182805461025f90611b05565b80156102ac5780601f10610281576101008083540402835291602001916102ac565b820191906000526020600020905b81548152906001019060200180831161028f57829003601f168201915b505050505081526020016004820180546102c590611b05565b80601f01602080910402602001604051908101604052809291908181526020018280546102f190611b05565b801561033e5780601f106103135761010080835404028352916020019161033e565b820191906000526020600020905b81548152906001019060200180831161032157829003601f168201915b5050505050815260200160058201805461035790611b05565b80601f016020809104026020016040519081016040528092919081815260200182805461038390611b05565b80156103d05780601f106103a5576101008083540402835291602001916103d0565b820191906000526020600020905b8154815290600101906020018083116103b357829003601f168201915b505050505081526020016006820180546103e990611b05565b80601f016020809104026020016040519081016040528092919081815260200182805461041590611b05565b80156104625780601f1061043757610100808354040283529160200191610462565b820191906000526020600020905b81548152906001019060200180831161044557829003601f168201915b5050505050815260200160078201805461047b90611b05565b80601f01602080910402602001604051908101604052809291908181526020018280546104a790611b05565b80156104f45780601f106104c9576101008083540402835291602001916104f4565b820191906000526020600020905b8154815290600101906020018083116104d757829003601f168201915b5050505050815260200160088201805461050d90611b05565b80601f016020809104026020016040519081016040528092919081815260200182805461053990611b05565b80156105865780601f1061055b57610100808354040283529160200191610586565b820191906000526020600020905b81548152906001019060200180831161056957829003601f168201915b5050505050815250508152602001906001019061010d565b50505050905090565b600060646003805490506105bc60015461113b565b6105c69190611a2d565b6105d091906119fc565b9050600060646004805490506105e58461113b565b6105ef9190611a2d565b6105f991906119fc565b905060006064600a61060a8461113b565b6106149190611a2d565b61061e91906119fc565b905060006003848154811061065c577f4e487b7100000000000000000000000000000000000000000000000000000000600052603260045260246000fd5b90600052602060002001600484815481106106a0577f4e487b7100000000000000000000000000000000000000000000000000000000600052603260045260246000fd5b906000526020600020016040516020016106bb929190611723565b604051602081830303815290604052905060006106d78361113b565b905060005b8381101561078b57600060646005805490506106f78561113b565b6107019190611a2d565b61070b91906119fc565b90508360058281548110610748577f4e487b7100000000000000000000000000000000000000000000000000000000600052603260045260246000fd5b906000526020600020016040516020016107639291906116f4565b604051602081830303815290604052935080925050808061078390611b68565b9150506106dc565b506000606460078054905061079f8461113b565b6107a99190611a2d565b6107b391906119fc565b9050600060646006805490506107c88461113b565b6107d29190611a2d565b6107dc91906119fc565b9050600060646006805490506107f18461113b565b6107fb9190611a2d565b61080591906119fc565b90506000606460088054905061081a8461113b565b6108249190611a2d565b61082e91906119fc565b9050600060646009805490506108438461113b565b61084d9190611a2d565b61085791906119fc565b905060026040518061012001604052803373ffffffffffffffffffffffffffffffffffffffff1681526020014281526020018d8152602001898152602001600788815481106108cf577f4e487b7100000000000000000000000000000000000000000000000000000000600052603260045260246000fd5b9060005260206000200180546108e490611b05565b80601f016020809104026020016040519081016040528092919081815260200182805461091090611b05565b801561095d5780601f106109325761010080835404028352916020019161095d565b820191906000526020600020905b81548152906001019060200180831161094057829003601f168201915b50505050508152602001600687815481106109a1577f4e487b7100000000000000000000000000000000000000000000000000000000600052603260045260246000fd5b9060005260206000200180546109b690611b05565b80601f01602080910402602001604051908101604052809291908181526020018280546109e290611b05565b8015610a2f5780601f10610a0457610100808354040283529160200191610a2f565b820191906000526020600020905b815481529060010190602001808311610a1257829003601f168201915b5050505050815260200160068681548110610a73577f4e487b7100000000000000000000000000000000000000000000000000000000600052603260045260246000fd5b906000526020600020018054610a8890611b05565b80601f0160208091040260200160405190810160405280929190818152602001828054610ab490611b05565b8015610b015780601f10610ad657610100808354040283529160200191610b01565b820191906000526020600020905b815481529060010190602001808311610ae457829003601f168201915b5050505050815260200160088581548110610b45577f4e487b7100000000000000000000000000000000000000000000000000000000600052603260045260246000fd5b906000526020600020018054610b5a90611b05565b80601f0160208091040260200160405190810160405280929190818152602001828054610b8690611b05565b8015610bd35780601f10610ba857610100808354040283529160200191610bd3565b820191906000526020600020905b815481529060010190602001808311610bb657829003601f168201915b5050505050815260200160098481548110610c17577f4e487b7100000000000000000000000000000000000000000000000000000000600052603260045260246000fd5b906000526020600020018054610c2c90611b05565b80601f0160208091040260200160405190810160405280929190818152602001828054610c5890611b05565b8015610ca55780601f10610c7a57610100808354040283529160200191610ca5565b820191906000526020600020905b815481529060010190602001808311610c8857829003601f168201915b5050505050815250908060018154018082558091505060019003906000526020600020906009020160009091909190915060008201518160000160006101000a81548173ffffffffffffffffffffffffffffffffffffffff021916908373ffffffffffffffffffffffffffffffffffffffff160217905550602082015181600101556040820151816002019080519060200190610d4392919061122f565b506060820151816003019080519060200190610d6092919061122f565b506080820151816004019080519060200190610d7d92919061122f565b5060a0820151816005019080519060200190610d9a92919061122f565b5060c0820151816006019080519060200190610db792919061122f565b5060e0820151816007019080519060200190610dd492919061122f565b50610100820151816008019080519060200190610df292919061122f565b505050610e356040518060400160405280600b81526020017f2573207361797320676d210000000000000000000000000000000000000000008152503389611167565b6001600080828254610e4791906119a6565b925050819055503373ffffffffffffffffffffffffffffffffffffffff167fb718aed29e5b395a429bf0554ec764a2e4da29e3310e5120ef0d0d3d8699d7e4428d8a60078a81548110610ec3577f4e487b7100000000000000000000000000000000000000000000000000000000600052603260045260246000fd5b9060005260206000200160068a81548110610f07577f4e487b7100000000000000000000000000000000000000000000000000000000600052603260045260246000fd5b9060005260206000200160068a81548110610f4b577f4e487b7100000000000000000000000000000000000000000000000000000000600052603260045260246000fd5b9060005260206000200160088a81548110610f8f577f4e487b7100000000000000000000000000000000000000000000000000000000600052603260045260246000fd5b9060005260206000200160098a81548110610fd3577f4e487b7100000000000000000000000000000000000000000000000000000000600052603260045260246000fd5b90600052602060002001604051610ff198979695949392919061181b565b60405180910390a25050505050505050505050565b61109c8160405160240161101a9190611769565b6040516020818303038152906040527f41304fac000000000000000000000000000000000000000000000000000000007bffffffffffffffffffffffffffffffffffffffffffffffffffffffff19166020820180517bffffffffffffffffffffffffffffffffffffffffffffffffffffffff8381831617835250505050611206565b50565b61113782826040516024016110b59291906117d0565b6040516020818303038152906040527f9710a9d0000000000000000000000000000000000000000000000000000000007bffffffffffffffffffffffffffffffffffffffffffffffffffffffff19166020820180517bffffffffffffffffffffffffffffffffffffffffffffffffffffffff8381831617835250505050611206565b5050565b6000606482424461114c91906119a6565b61115691906119a6565b6111609190611bb1565b9050919050565b61120183838360405160240161117f9392919061178b565b6040516020818303038152906040527fe0e9ad4f000000000000000000000000000000000000000000000000000000007bffffffffffffffffffffffffffffffffffffffffffffffffffffffff19166020820180517bffffffffffffffffffffffffffffffffffffffffffffffffffffffff8381831617835250505050611206565b505050565b60008151905060006a636f6e736f6c652e6c6f679050602083016000808483855afa5050505050565b82805461123b90611b05565b90600052602060002090601f01602090048101928261125d57600085556112a4565b82601f1061127657805160ff19168380011785556112a4565b828001600101855582156112a4579182015b828111156112a3578251825591602001919060010190611288565b5b5090506112b191906112b5565b5090565b5b808211156112ce5760008160009055506001016112b6565b5090565b60006112e56112e0846118ef565b6118ca565b9050828152602081018484840111156112fd57600080fd5b611308848285611ac3565b509392505050565b600082601f83011261132157600080fd5b81356113318482602086016112d2565b91505092915050565b60006020828403121561134c57600080fd5b600082013567ffffffffffffffff81111561136657600080fd5b61137284828501611310565b91505092915050565b600061138783836115e7565b905092915050565b61139881611a87565b82525050565b6113a781611a87565b82525050565b60006113b882611945565b6113c28185611968565b9350836020820285016113d485611920565b8060005b8581101561141057848403895281516113f1858261137b565b94506113fc8361195b565b925060208a019950506001810190506113d8565b50829750879550505050505092915050565b600061142d82611950565b6114378185611979565b9350611447818560208601611ad2565b61145081611c9e565b840191505092915050565b600061146682611950565b611470818561198a565b9350611480818560208601611ad2565b61148981611c9e565b840191505092915050565b600061149f82611950565b6114a9818561199b565b93506114b9818560208601611ad2565b80840191505092915050565b600081546114d281611b05565b6114dc818661198a565b945060018216600081146114f757600181146115095761153c565b60ff198316865260208601935061153c565b61151285611930565b60005b8381101561153457815481890152600182019150602081019050611515565b808801955050505b50505092915050565b6000815461155281611b05565b61155c818661199b565b945060018216600081146115775760018114611588576115bb565b60ff198316865281860193506115bb565b61159185611930565b60005b838110156115b357815481890152600182019150602081019050611594565b838801955050505b50505092915050565b60006115d160018361199b565b91506115dc82611caf565b600182019050919050565b600061012083016000830151611600600086018261138f565b50602083015161161360208601826116d6565b506040830151848203604086015261162b8282611422565b915050606083015184820360608601526116458282611422565b9150506080830151848203608086015261165f8282611422565b91505060a083015184820360a08601526116798282611422565b91505060c083015184820360c08601526116938282611422565b91505060e083015184820360e08601526116ad8282611422565b9150506101008301518482036101008601526116c98282611422565b9150508091505092915050565b6116df81611ab9565b82525050565b6116ee81611ab9565b82525050565b60006117008285611494565b915061170b826115c4565b91506117178284611545565b91508190509392505050565b600061172f8285611545565b915061173b8284611545565b91508190509392505050565b6000602082019050818103600083015261176181846113ad565b905092915050565b60006020820190508181036000830152611783818461145b565b905092915050565b600060608201905081810360008301526117a5818661145b565b90506117b4602083018561139e565b81810360408301526117c6818461145b565b9050949350505050565b600060408201905081810360008301526117ea818561145b565b90506117f960208301846116e5565b9392505050565b600060208201905061181560008301846116e5565b92915050565b600061010082019050611831600083018b6116e5565b8181036020830152611843818a61145b565b90508181036040830152611857818961145b565b9050818103606083015261186b81886114c5565b9050818103608083015261187f81876114c5565b905081810360a083015261189381866114c5565b905081810360c08301526118a781856114c5565b905081810360e08301526118bb81846114c5565b90509998505050505050505050565b60006118d46118e5565b90506118e08282611b37565b919050565b6000604051905090565b600067ffffffffffffffff82111561190a57611909611c6f565b5b61191382611c9e565b9050602081019050919050565b6000819050602082019050919050565b60008190508160005260206000209050919050565b600081519050919050565b600081519050919050565b6000602082019050919050565b600082825260208201905092915050565b600082825260208201905092915050565b600082825260208201905092915050565b600081905092915050565b60006119b182611ab9565b91506119bc83611ab9565b9250827fffffffffffffffffffffffffffffffffffffffffffffffffffffffffffffffff038211156119f1576119f0611be2565b5b828201905092915050565b6000611a0782611ab9565b9150611a1283611ab9565b925082611a2257611a21611c11565b5b828204905092915050565b6000611a3882611ab9565b9150611a4383611ab9565b9250817fffffffffffffffffffffffffffffffffffffffffffffffffffffffffffffffff0483118215151615611a7c57611a7b611be2565b5b828202905092915050565b6000611a9282611a99565b9050919050565b600073ffffffffffffffffffffffffffffffffffffffff82169050919050565b6000819050919050565b82818337600083830152505050565b60005b83811015611af0578082015181840152602081019050611ad5565b83811115611aff576000848401525b50505050565b60006002820490506001821680611b1d57607f821691505b60208210811415611b3157611b30611c40565b5b50919050565b611b4082611c9e565b810181811067ffffffffffffffff82111715611b5f57611b5e611c6f565b5b80604052505050565b6000611b7382611ab9565b91507fffffffffffffffffffffffffffffffffffffffffffffffffffffffffffffffff821415611ba657611ba5611be2565b5b600182019050919050565b6000611bbc82611ab9565b9150611bc783611ab9565b925082611bd757611bd6611c11565b5b828206905092915050565b7f4e487b7100000000000000000000000000000000000000000000000000000000600052601160045260246000fd5b7f4e487b7100000000000000000000000000000000000000000000000000000000600052601260045260246000fd5b7f4e487b7100000000000000000000000000000000000000000000000000000000600052602260045260246000fd5b7f4e487b7100000000000000000000000000000000000000000000000000000000600052604160045260246000fd5b6000601f19601f8301169050919050565b7f200000000000000000000000000000000000000000000000000000000000000060008201525056fea2646970667358221220fccc24bd56941cbe33a29239856b13d2b999c9411d7934106a0fc4a0d1787a5864736f6c63430008040033",
  "linkReferences": {},
  "deployedLinkReferences": {}
}